:100000000C9434000C9449000C9449000C94490061
:100010000C9449000C9449000C9449000C9449003C
:100020000C9449000C9449000C9449000C9449002C
:100030000C9449000C9449000C9449000C9449001C
:100040000C9449000C9449000C9449000C9449000C
:100050000C9449000C9449000C9449000C944900FC
:100060000C9449000C94490011241FBECFEFD8E036
:10007000DEBFCDBF11E0A0E0B1E0E6E8F1E002C0F4
:1000800005900D92A030B107D9F70E944B000C9457
:10009000C1000C9400000E944D001F931092C500F7
:1000A00087E68093C40088E18093C10086E0809356
:1000B000C20088E495E62CE63FE64CE250E265E5B6
:1000C00073E5E1E4F2E5A4E5B1E21091C00010723D
:1000D0001030D9F38093C6001091C0001072103018
:1000E000D9F39093C6001091C00010721030D9F36C
:1000F0002093C6001091C00010721030D9F32093E5
:10010000C6001091C00010721030D9F33093C600B1
:100110001091C00010721030D9F34093C6001091B6
:10012000C00010721030D9F35093C6001091C00077
:1001300010721030D9F36093C6001091C000107295
:100140001030D9F37093C6001091C00010721030B7
:10015000D9F3E093C6001091C00010721030D9F3AB
:10016000F093C6001091C00010721030D9F3A09324
:10017000C6001091C00010721030D9F3B093C600C1
:06018000A4CFF894FFCFAC
:00000001FF
